{"contractName":"Lotteria","abi":[{"inputs":[],"stateMutability":"nonpayable","type":"constructor"},{"inputs":[{"internalType":"address","name":"","type":"address"},{"internalType":"uint256","name":"","type":"uint256"}],"name":"activeTicketMap","outputs":[{"internalType":"address","name":"player","type":"address"},{"internalType":"uint256","name":"startData","type":"uint256"},{"internalType":"uint256","name":"endDate","type":"uint256"},{"internalType":"bytes32","name":"ticketId","type":"bytes32"},{"internalType":"uint256","name":"price","type":"uint256"}],"stateMutability":"view","type":"function","constant":true},{"inputs":[],"name":"duration","outputs":[{"internalType":"uint256","name":"","type":"uint256"}],"stateMutability":"view","type":"function","constant":true},{"inputs":[],"name":"expiration","outputs":[{"internalType":"uint256","name":"","type":"uint256"}],"stateMutability":"view","type":"function","constant":true},{"inputs":[],"name":"lottery_state","outputs":[{"internalType":"enum Lotteria.LOTTERY_STATE","name":"","type":"uint8"}],"stateMutability":"view","type":"function","constant":true},{"inputs":[],"name":"numLotteries","outputs":[{"internalType":"uint256","name":"","type":"uint256"}],"stateMutability":"view","type":"function","constant":true},{"inputs":[],"name":"numTotalTickets","outputs":[{"internalType":"uint256","name":"","type":"uint256"}],"stateMutability":"view","type":"function","constant":true},{"inputs":[],"name":"operatorTotalCommission","outputs":[{"internalType":"uint256","name":"","type":"uint256"}],"stateMutability":"view","type":"function","constant":true},{"inputs":[],"name":"owner","outputs":[{"internalType":"address","name":"","type":"address"}],"stateMutability":"view","type":"function","constant":true},{"inputs":[{"internalType":"uint256","name":"","type":"uint256"}],"name":"players","outputs":[{"internalType":"address payable","name":"","type":"address"}],"stateMutability":"view","type":"function","constant":true},{"inputs":[],"name":"startLottery","outputs":[{"internalType":"uint256","name":"","type":"uint256"}],"stateMutability":"view","type":"function","constant":true},{"inputs":[],"name":"ticketCommission","outputs":[{"internalType":"uint256","name":"","type":"uint256"}],"stateMutability":"view","type":"function","constant":true},{"inputs":[{"internalType":"uint256","name":"","type":"uint256"}],"name":"ticketList","outputs":[{"internalType":"bytes32","name":"","type":"bytes32"}],"stateMutability":"view","type":"function","constant":true},{"inputs":[],"name":"ticketPrice","outputs":[{"internalType":"uint256","name":"","type":"uint256"}],"stateMutability":"view","type":"function","constant":true},{"inputs":[],"name":"winner","outputs":[{"internalType":"uint256","name":"endDate","type":"uint256"},{"internalType":"bytes32","name":"ticketId","type":"bytes32"},{"internalType":"uint256","name":"price","type":"uint256"},{"internalType":"uint256","name":"winning","type":"uint256"}],"stateMutability":"view","type":"function","constant":true},{"inputs":[{"internalType":"uint256","name":"","type":"uint256"}],"name":"winningTicketList","outputs":[{"internalType":"uint256","name":"endDate","type":"uint256"},{"internalType":"bytes32","name":"ticketId","type":"bytes32"},{"internalType":"uint256","name":"price","type":"uint256"},{"internalType":"uint256","name":"winning","type":"uint256"}],"stateMutability":"view","type":"function","constant":true},{"inputs":[{"internalType":"address","name":"","type":"address"},{"internalType":"uint256","name":"","type":"uint256"}],"name":"winningTicketMap","outputs":[{"internalType":"uint256","name":"endDate","type":"uint256"},{"internalType":"bytes32","name":"ticketId","type":"bytes32"},{"internalType":"uint256","name":"price","type":"uint256"},{"internalType":"uint256","name":"winning","type":"uint256"}],"stateMutability":"view","type":"function","constant":true},{"inputs":[{"internalType":"uint256","name":"_duration","type":"uint256"},{"internalType":"uint256","name":"_price","type":"uint256"}],"name":"setStateLottery","outputs":[],"stateMutability":"nonpayable","type":"function"},{"inputs":[],"name":"enter","outputs":[],"stateMutability":"payable","type":"function","payable":true},{"inputs":[],"name":"pickWinner","outputs":[],"stateMutability":"nonpayable","type":"function"},{"inputs":[],"name":"getWitdrawCommision","outputs":[{"internalType":"uint256","name":"","type":"uint256"}],"stateMutability":"view","type":"function","constant":true},{"inputs":[],"name":"getBalance","outputs":[{"internalType":"uint256","name":"","type":"uint256"}],"stateMutability":"view","type":"function","constant":true},{"inputs":[],"name":"CurrentWinningReward","outputs":[{"internalType":"uint256","name":"","type":"uint256"}],"stateMutability":"view","type":"function","constant":true},{"inputs":[],"name":"getTotalTicket","outputs":[{"internalType":"uint256","name":"","type":"uint256"}],"stateMutability":"view","type":"function","constant":true},{"inputs":[{"internalType":"address","name":"_player","type":"address"}],"name":"getTicket","outputs":[{"components":[{"internalType":"address","name":"player","type":"address"},{"internalType":"uint256","name":"startData","type":"uint256"},{"internalType":"uint256","name":"endDate","type":"uint256"},{"internalType":"bytes32","name":"ticketId","type":"bytes32"},{"internalType":"uint256","name":"price","type":"uint256"}],"internalType":"struct Lotteria.ActiveTicket[]","name":"","type":"tuple[]"}],"stateMutability":"view","type":"function","constant":true},{"inputs":[{"internalType":"address","name":"_player","type":"address"}],"name":"getWinningTicket","outputs":[{"components":[{"internalType":"uint256","name":"endDate","type":"uint256"},{"internalType":"bytes32","name":"ticketId","type":"bytes32"},{"internalType":"uint256","name":"price","type":"uint256"},{"internalType":"uint256","name":"winning","type":"uint256"}],"internalType":"struct Lotteria.WinningTicket[]","name":"","type":"tuple[]"}],"stateMutability":"view","type":"function","constant":true},{"inputs":[],"name":"Winner","outputs":[{"components":[{"internalType":"uint256","name":"endDate","type":"uint256"},{"internalType":"bytes32","name":"ticketId","type":"bytes32"},{"internalType":"uint256","name":"price","type":"uint256"},{"internalType":"uint256","name":"winning","type":"uint256"}],"internalType":"struct Lotteria.WinningTicket","name":"","type":"tuple"}],"stateMutability":"view","type":"function","constant":true},{"inputs":[],"name":"getLastWinning","outputs":[{"components":[{"internalType":"uint256","name":"endDate","type":"uint256"},{"internalType":"bytes32","name":"ticketId","type":"bytes32"},{"internalType":"uint256","name":"price","type":"uint256"},{"internalType":"uint256","name":"winning","type":"uint256"}],"internalType":"struct Lotteria.WinningTicket[]","name":"","type":"tuple[]"}],"stateMutability":"view","type":"function","constant":true},{"inputs":[],"name":"getRemainingTime","outputs":[{"internalType":"uint256","name":"","type":"uint256"}],"stateMutability":"view","type":"function","constant":true}],"bytecode":"0x6080604052610258600055670de0b6b3a7640000600155600060035534801561002757600080fd5b5033600260006101000a81548173ffffffffffffffffffffffffffffffffffffffff021916908373ffffffffffffffffffffffffffffffffffffffff1602179055506001600b60006101000a81548160ff0219169083600181111561008f5761008e6100a9565b5b0217905550600060078190555060006006819055506100d8565b7f4e487b7100000000000000000000000000000000000000000000000000000000600052602160045260246000fd5b6127b680620000e86000396000f3fe6080604052600436106101b75760003560e01c806381447999116100ec578063c6944fa01161008a578063dfbf53ae11610064578063dfbf53ae14610624578063e97dcb6214610652578063efb98bcf1461065c578063f71d96cb14610687576101b7565b8063c6944fa014610591578063d157658b146105bc578063d4459da0146105e7576101b7565b8063ae525071116100c6578063ae525071146104d1578063b2b98ed214610512578063ba946d791461053d578063c561281e14610568576101b7565b806381447999146104505780638da5cb5b1461047b57806393e74453146104a6576101b7565b80634717dea91161015957806369f7dcef1161013357806369f7dcef1461037a57806372a407f3146103ba5780637deee0c4146103e5578063813c39b114610425576101b7565b80634717dea9146102fb5780635d495aea146103385780636032a4f91461034f576101b7565b80631209b1f6116101955780631209b1f61461023d578063160344e21461026857806340756f33146102935780634665096d146102d0576101b7565b8063057d3f26146101bc5780630fb5a6b4146101e757806312065fe014610212575b600080fd5b3480156101c857600080fd5b506101d16106c4565b6040516101de9190611be3565b60405180910390f35b3480156101f357600080fd5b506101fc6106ca565b6040516102099190611be3565b60405180910390f35b34801561021e57600080fd5b506102276106d0565b6040516102349190611be3565b60405180910390f35b34801561024957600080fd5b50610252610732565b60405161025f9190611be3565b60405180910390f35b34801561027457600080fd5b5061027d610738565b60405161028a9190611be3565b60405180910390f35b34801561029f57600080fd5b506102ba60048036038101906102b59190611c2f565b61073e565b6040516102c79190611c75565b60405180910390f35b3480156102dc57600080fd5b506102e5610762565b6040516102f29190611be3565b60405180910390f35b34801561030757600080fd5b50610322600480360381019061031d9190611cee565b610768565b60405161032f9190611e5f565b60405180910390f35b34801561034457600080fd5b5061034d610884565b005b34801561035b57600080fd5b50610364610cdf565b6040516103719190611be3565b60405180910390f35b34801561038657600080fd5b506103a1600480360381019061039c9190611e81565b610cea565b6040516103b19493929190611ec1565b60405180910390f35b3480156103c657600080fd5b506103cf610d37565b6040516103dc9190611be3565b60405180910390f35b3480156103f157600080fd5b5061040c60048036038101906104079190611c2f565b610d41565b60405161041c9493929190611ec1565b60405180910390f35b34801561043157600080fd5b5061043a610d81565b6040516104479190611be3565b60405180910390f35b34801561045c57600080fd5b50610465610de5565b6040516104729190611f7d565b60405180910390f35b34801561048757600080fd5b50610490610df8565b60405161049d9190611fa7565b60405180910390f35b3480156104b257600080fd5b506104bb610e1e565b6040516104c89190611be3565b60405180910390f35b3480156104dd57600080fd5b506104f860048036038101906104f39190611e81565b610e24565b604051610509959493929190611fc2565b60405180910390f35b34801561051e57600080fd5b50610527610e97565b604051610534919061206a565b60405180910390f35b34801561054957600080fd5b50610552610ed9565b60405161055f9190611be3565b60405180910390f35b34801561057457600080fd5b5061058f600480360381019061058a9190612085565b610edf565b005b34801561059d57600080fd5b506105a6611093565b6040516105b39190611be3565b60405180910390f35b3480156105c857600080fd5b506105d16110ad565b6040516105de91906121c9565b60405180910390f35b3480156105f357600080fd5b5061060e60048036038101906106099190611cee565b611134565b60405161061b91906121c9565b60405180910390f35b34801561063057600080fd5b506106396111fa565b6040516106499493929190611ec1565b60405180910390f35b61065a611218565b005b34801561066857600080fd5b506106716114ad565b60405161067e9190611be3565b60405180910390f35b34801561069357600080fd5b506106ae60048036038101906106a99190611c2f565b6114d5565b6040516106bb919061220c565b60405180910390f35b60075481565b60005481565b6000600260009054906101000a900473ffffffffffffffffffffffffffffffffffffffff1673ffffffffffffffffffffffffffffffffffffffff163373ffffffffffffffffffffffffffffffffffffffff161461072c57600080fd5b47905090565b60015481565b60095481565b6005818154811061074e57600080fd5b906000526020600020016000915090505481565b60085481565b6060600a60008373ffffffffffffffffffffffffffffffffffffffff1673ffffffffffffffffffffffffffffffffffffffff168152602001908152602001600020805480602002602001604051908101604052809291908181526020016000905b8282101561087957838290600052602060002090600502016040518060a00160405290816000820160009054906101000a900473ffffffffffffffffffffffffffffffffffffffff1673ffffffffffffffffffffffffffffffffffffffff1673ffffffffffffffffffffffffffffffffffffffff168152602001600182015481526020016002820154815260200160038201548152602001600482015481525050815260200190600101906107c9565b505050509050919050565b600260009054906101000a900473ffffffffffffffffffffffffffffffffffffffff1673ffffffffffffffffffffffffffffffffffffffff163373ffffffffffffffffffffffffffffffffffffffff16146108de57600080fd5b600854421015610923576040517f08c379a000000000000000000000000000000000000000000000000000000000815260040161091a90612284565b60405180910390fd5b6000600181111561093757610936611f06565b5b600b60009054906101000a900460ff16600181111561095957610958611f06565b5b14610999576040517f08c379a0000000000000000000000000000000000000000000000000000000008152600401610990906122f0565b60405180910390fd5b6000600480549050036109b3576109ae611514565b610cdd565b60006004805490506109c3611609565b6109cd919061233f565b90506000662386f26fc100006001546109e6919061239f565b6004805490506109f691906123d3565b9050600060048381548110610a0e57610a0d612415565b5b9060005260206000200160009054906101000a900473ffffffffffffffffffffffffffffffffffffffff1690508073ffffffffffffffffffffffffffffffffffffffff166108fc839081150290604051600060405180830381858888f19350505050158015610a81573d6000803e3d6000fd5b50610a8a611652565b600060058481548110610aa057610a9f612415565b5b9060005260206000200154905060405180608001604052806008548152602001828152602001600154815260200184815250600d600082015181600001556020820151816001015560408201518160020155606082015181600301559050506000601160008473ffffffffffffffffffffffffffffffffffffffff1673ffffffffffffffffffffffffffffffffffffffff168152602001908152602001600020905080600d9080600181540180825580915050600190039060005260206000209060040201600090919091909150600082015481600001556001820154816001015560028201548160020155600382015481600301555050600c600d908060018154018082558091505060019003906000526020600020906004020160009091909190915060008201548160000155600182015481600101556002820154816002015560038201548160030155505080601160008573ffffffffffffffffffffffffffffffffffffffff1673ffffffffffffffffffffffffffffffffffffffff168152602001908152602001600020908054610c3d9291906118be565b50600067ffffffffffffffff811115610c5957610c58612444565b5b604051908082528060200260200182016040528015610c875781602001602082028036833780820191505090505b5060049080519060200190610c9d92919061193e565b5060056000610cac91906119c8565b6001600b60006101000a81548160ff02191690836001811115610cd257610cd1611f06565b5b021790555050505050505b565b662386f26fc1000081565b60116020528160005260406000208181548110610d0657600080fd5b9060005260206000209060040201600091509150508060000154908060010154908060020154908060030154905084565b6000600754905090565b600c8181548110610d5157600080fd5b90600052602060002090600402016000915090508060000154908060010154908060020154908060030154905084565b6000600260009054906101000a900473ffffffffffffffffffffffffffffffffffffffff1673ffffffffffffffffffffffffffffffffffffffff163373ffffffffffffffffffffffffffffffffffffffff1614610ddd57600080fd5b600354905090565b600b60009054906101000a900460ff1681565b600260009054906101000a900473ffffffffffffffffffffffffffffffffffffffff1681565b60065481565b600a6020528160005260406000208181548110610e4057600080fd5b9060005260206000209060050201600091509150508060000160009054906101000a900473ffffffffffffffffffffffffffffffffffffffff16908060010154908060020154908060030154908060040154905085565b610e9f6119e9565b600d604051806080016040529081600082015481526020016001820154815260200160028201548152602001600382015481525050905090565b60035481565b600260009054906101000a900473ffffffffffffffffffffffffffffffffffffffff1673ffffffffffffffffffffffffffffffffffffffff163373ffffffffffffffffffffffffffffffffffffffff1614610f3957600080fd5b600180811115610f4c57610f4b611f06565b5b600b60009054906101000a900460ff166001811115610f6e57610f6d611f06565b5b14610fae576040517f08c379a0000000000000000000000000000000000000000000000000000000008152600401610fa5906124bf565b60405180910390fd5b60058210158015610fc05750603c8211155b15610fdd57603c82610fd291906123d3565b600081905550610fe7565b6102586000819055505b600081118015610ff8575060058111155b1561101c57670de0b6b3a76400008161101191906123d3565b60018190555061102c565b670de0b6b3a76400006001819055505b6000600b60006101000a81548160ff0219169083600181111561105257611051611f06565b5b02179055506000544261106591906124df565b600881905550426009819055506000600781905550600160065461108991906124df565b6006819055505050565b60006001546005805490506110a891906123d3565b905090565b6060600c805480602002602001604051908101604052809291908181526020016000905b8282101561112b5783829060005260206000209060040201604051806080016040529081600082015481526020016001820154815260200160028201548152602001600382015481525050815260200190600101906110d1565b50505050905090565b6060601160008373ffffffffffffffffffffffffffffffffffffffff1673ffffffffffffffffffffffffffffffffffffffff168152602001908152602001600020805480602002602001604051908101604052809291908181526020016000905b828210156111ef578382906000526020600020906004020160405180608001604052908160008201548152602001600182015481526020016002820154815260200160038201548152505081526020019060010190611195565b505050509050919050565b600d8060000154908060010154908060020154908060030154905084565b600260009054906101000a900473ffffffffffffffffffffffffffffffffffffffff1673ffffffffffffffffffffffffffffffffffffffff163373ffffffffffffffffffffffffffffffffffffffff16036112a8576040517f08c379a000000000000000000000000000000000000000000000000000000000815260040161129f9061255f565b60405180910390fd5b60015434146112ec576040517f08c379a00000000000000000000000000000000000000000000000000000000081526004016112e3906125f1565b60405180910390fd5b600073ffffffffffffffffffffffffffffffffffffffff163373ffffffffffffffffffffffffffffffffffffffff160361135b576040517f08c379a00000000000000000000000000000000000000000000000000000000081526004016113529061265d565b60405180910390fd5b6000600181111561136f5761136e611f06565b5b600b60009054906101000a900460ff16600181111561139157611390611f06565b5b1461139b57600080fd5b60085442106113df576040517f08c379a00000000000000000000000000000000000000000000000000000000081526004016113d6906126c9565b60405180910390fd5b60016007546113ee91906124df565b60078190555060006113fe61170b565b90506004339080600181540180825580915050600190039060005260206000200160009091909190916101000a81548173ffffffffffffffffffffffffffffffffffffffff021916908373ffffffffffffffffffffffffffffffffffffffff1602179055506005819080600181540180825580915050600190039060005260206000200160009091909190915055662386f26fc100006004805490506114a491906123d3565b60038190555050565b600060085442106114c157600090506114d2565b426008546114cf919061239f565b90505b90565b600481815481106114e557600080fd5b906000526020600020016000915054906101000a900473ffffffffffffffffffffffffffffffffffffffff1681565b600260009054906101000a900473ffffffffffffffffffffffffffffffffffffffff1673ffffffffffffffffffffffffffffffffffffffff163373ffffffffffffffffffffffffffffffffffffffff161461156e57600080fd5b600067ffffffffffffffff81111561158957611588612444565b5b6040519080825280602002602001820160405280156115b75781602001602082028036833780820191505090505b50600490805190602001906115cd92919061193e565b50600560006115dc91906119c8565b6001600b60006101000a81548160ff0219169083600181111561160257611601611f06565b5b0217905550565b6000806004805490504361161d919061239f565b409050428160405160200161163392919061272b565b6040516020818303038152906040528051906020012060001c91505090565b600260009054906101000a900473ffffffffffffffffffffffffffffffffffffffff1673ffffffffffffffffffffffffffffffffffffffff163373ffffffffffffffffffffffffffffffffffffffff16146116ac57600080fd5b60003390506000600354905060006003819055508173ffffffffffffffffffffffffffffffffffffffff166108fc829081150290604051600060405180830381858888f19350505050158015611706573d6000803e3d6000fd5b505050565b600080600a60003373ffffffffffffffffffffffffffffffffffffffff1673ffffffffffffffffffffffffffffffffffffffff1681526020019081526020016000209050600061175961188e565b9050816040518060a001604052803373ffffffffffffffffffffffffffffffffffffffff1681526020014281526020016008548152602001838152602001600154815250908060018154018082558091505060019003906000526020600020906005020160009091909190915060008201518160000160006101000a81548173ffffffffffffffffffffffffffffffffffffffff021916908373ffffffffffffffffffffffffffffffffffffffff16021790555060208201518160010155604082015181600201556060820151816003015560808201518160040155505081600a60003373ffffffffffffffffffffffffffffffffffffffff1673ffffffffffffffffffffffffffffffffffffffff168152602001908152602001600020908054611885929190611a14565b50809250505090565b600033426040516020016118a3929190612757565b60405160208183030381529060405280519060200120905090565b82805482825590600052602060002090600402810192821561192d5760005260206000209160040282015b8281111561192c578282600082015481600001556001820154816001015560028201548160020155600382015481600301555050916004019190600401906118e9565b5b50905061193a9190611afb565b5090565b8280548282559060005260206000209081019282156119b7579160200282015b828111156119b65782518260006101000a81548173ffffffffffffffffffffffffffffffffffffffff021916908373ffffffffffffffffffffffffffffffffffffffff1602179055509160200191906001019061195e565b5b5090506119c49190611b32565b5090565b50805460008255906000526020600020908101906119e69190611b4f565b50565b6040518060800160405280600081526020016000801916815260200160008152602001600081525090565b828054828255906000526020600020906005028101928215611aea5760005260206000209160050282015b82811115611ae95782826000820160009054906101000a900473ffffffffffffffffffffffffffffffffffffffff168160000160006101000a81548173ffffffffffffffffffffffffffffffffffffffff021916908373ffffffffffffffffffffffffffffffffffffffff16021790555060018201548160010155600282015481600201556003820154816003015560048201548160040155505091600501919060050190611a3f565b5b509050611af79190611b6c565b5090565b5b80821115611b2e5760008082016000905560018201600090556002820160009055600382016000905550600401611afc565b5090565b5b80821115611b4b576000816000905550600101611b33565b5090565b5b80821115611b68576000816000905550600101611b50565b5090565b5b80821115611bc657600080820160006101000a81549073ffffffffffffffffffffffffffffffffffffffff0219169055600182016000905560028201600090556003820160009055600482016000905550600501611b6d565b5090565b6000819050919050565b611bdd81611bca565b82525050565b6000602082019050611bf86000830184611bd4565b92915050565b600080fd5b611c0c81611bca565b8114611c1757600080fd5b50565b600081359050611c2981611c03565b92915050565b600060208284031215611c4557611c44611bfe565b5b6000611c5384828501611c1a565b91505092915050565b6000819050919050565b611c6f81611c5c565b82525050565b6000602082019050611c8a6000830184611c66565b92915050565b600073ffffffffffffffffffffffffffffffffffffffff82169050919050565b6000611cbb82611c90565b9050919050565b611ccb81611cb0565b8114611cd657600080fd5b50565b600081359050611ce881611cc2565b92915050565b600060208284031215611d0457611d03611bfe565b5b6000611d1284828501611cd9565b91505092915050565b600081519050919050565b600082825260208201905092915050565b6000819050602082019050919050565b611d5081611cb0565b82525050565b611d5f81611bca565b82525050565b611d6e81611c5c565b82525050565b60a082016000820151611d8a6000850182611d47565b506020820151611d9d6020850182611d56565b506040820151611db06040850182611d56565b506060820151611dc36060850182611d65565b506080820151611dd66080850182611d56565b50505050565b6000611de88383611d74565b60a08301905092915050565b6000602082019050919050565b6000611e0c82611d1b565b611e168185611d26565b9350611e2183611d37565b8060005b83811015611e52578151611e398882611ddc565b9750611e4483611df4565b925050600181019050611e25565b5085935050505092915050565b60006020820190508181036000830152611e798184611e01565b905092915050565b60008060408385031215611e9857611e97611bfe565b5b6000611ea685828601611cd9565b9250506020611eb785828601611c1a565b9150509250929050565b6000608082019050611ed66000830187611bd4565b611ee36020830186611c66565b611ef06040830185611bd4565b611efd6060830184611bd4565b95945050505050565b7f4e487b7100000000000000000000000000000000000000000000000000000000600052602160045260246000fd5b60028110611f4657611f45611f06565b5b50565b6000819050611f5782611f35565b919050565b6000611f6782611f49565b9050919050565b611f7781611f5c565b82525050565b6000602082019050611f926000830184611f6e565b92915050565b611fa181611cb0565b82525050565b6000602082019050611fbc6000830184611f98565b92915050565b600060a082019050611fd76000830188611f98565b611fe46020830187611bd4565b611ff16040830186611bd4565b611ffe6060830185611c66565b61200b6080830184611bd4565b9695505050505050565b60808201600082015161202b6000850182611d56565b50602082015161203e6020850182611d65565b5060408201516120516040850182611d56565b5060608201516120646060850182611d56565b50505050565b600060808201905061207f6000830184612015565b92915050565b6000806040838503121561209c5761209b611bfe565b5b60006120aa85828601611c1a565b92505060206120bb85828601611c1a565b9150509250929050565b600081519050919050565b600082825260208201905092915050565b6000819050602082019050919050565b6080820160008201516121076000850182611d56565b50602082015161211a6020850182611d65565b50604082015161212d6040850182611d56565b5060608201516121406060850182611d56565b50505050565b600061215283836120f1565b60808301905092915050565b6000602082019050919050565b6000612176826120c5565b61218081856120d0565b935061218b836120e1565b8060005b838110156121bc5781516121a38882612146565b97506121ae8361215e565b92505060018101905061218f565b5085935050505092915050565b600060208201905081810360008301526121e3818461216b565b905092915050565b60006121f682611c90565b9050919050565b612206816121eb565b82525050565b600060208201905061222160008301846121fd565b92915050565b600082825260208201905092915050565b7f746865206c6f7474657279206e6f742065787069726564207965740000000000600082015250565b600061226e601b83612227565b915061227982612238565b602082019050919050565b6000602082019050818103600083015261229d81612261565b9050919050565b7f6c6f747465727920697320636c6f736564207965740000000000000000000000600082015250565b60006122da601583612227565b91506122e5826122a4565b602082019050919050565b60006020820190508181036000830152612309816122cd565b9050919050565b7f4e487b7100000000000000000000000000000000000000000000000000000000600052601260045260246000fd5b600061234a82611bca565b915061235583611bca565b92508261236557612364612310565b5b828206905092915050565b7f4e487b7100000000000000000000000000000000000000000000000000000000600052601160045260246000fd5b60006123aa82611bca565b91506123b583611bca565b92508282039050818111156123cd576123cc612370565b5b92915050565b60006123de82611bca565b91506123e983611bca565b92508282026123f781611bca565b9150828204841483151761240e5761240d612370565b5b5092915050565b7f4e487b7100000000000000000000000000000000000000000000000000000000600052603260045260246000fd5b7f4e487b7100000000000000000000000000000000000000000000000000000000600052604160045260246000fd5b7f43616e27742073746172742061206e6577206c6f747465727920796574210000600082015250565b60006124a9601e83612227565b91506124b482612473565b602082019050919050565b600060208201905081810360008301526124d88161249c565b9050919050565b60006124ea82611bca565b91506124f583611bca565b925082820190508082111561250d5761250c612370565b5b92915050565b7f6f776e6572206973206e6f7420616c6c6f776564000000000000000000000000600082015250565b6000612549601483612227565b915061255482612513565b602082019050919050565b600060208201905081810360008301526125788161253c565b9050919050565b7f3120657468657220696c2072657175697369746f20706572207061727465636960008201527f7061726500000000000000000000000000000000000000000000000000000000602082015250565b60006125db602483612227565b91506125e68261257f565b604082019050919050565b6000602082019050818103600083015261260a816125ce565b9050919050565b7f53656e6465722061646472657373206d7573742062652076616c696400000000600082015250565b6000612647601c83612227565b915061265282612611565b602082019050919050565b600060208201905081810360008301526126768161263a565b9050919050565b7f746865206c6f7474657279206578706972656400000000000000000000000000600082015250565b60006126b3601383612227565b91506126be8261267d565b602082019050919050565b600060208201905081810360008301526126e2816126a6565b9050919050565b6000819050919050565b6127046126ff82611bca565b6126e9565b82525050565b6000819050919050565b61272561272082611c5c565b61270a565b82525050565b600061273782856126f3565b6020820191506127478284612714565b6020820191508190509392505050565b600060408201905061276c6000830185611f98565b6127796020830184611bd4565b939250505056fea264697066735822122088d75a16d4fe3e097c339306c9c631b9aa200800deb2d1c561fe0ee67895486e64736f6c63430008120033","immutableReferences":{},"source":"// SPDX-License-Identifier: MIT\npragma solidity >=0.4.22 <0.9.0;\n\ncontract Lotteria {\n//-------------------------------------Constant--------------------------------------------------\n\n    uint256 public duration = 10 minutes;\n    uint256 public constant ticketCommission = 0.01 ether;\n    uint256 public ticketPrice = 1 ether;\n\n//------------------------------------variable---------------------------------------------------- \n    address public owner;\n    uint256 public operatorTotalCommission = 0;\n\n    //Array paralleli \n    address payable[] public players;\n    bytes32[] public ticketList;\n    uint256 public numLotteries; // numero di lotterie che ci sono state \n    \n    uint256 public numTotalTickets;\n    uint256 public expiration;\n    uint256 public startLottery;\n\n\n    struct ActiveTicket {\n        address player;\n        uint256 startData;\n        uint256 endDate;\n        bytes32 ticketId;   \n        uint256 price;\n    }\n\n    mapping(address => ActiveTicket[]) public activeTicketMap;\n\n\n     enum LOTTERY_STATE {\n        OPEN,\n        CLOSED\n    }\n\n    LOTTERY_STATE public lottery_state;\n\n\n\n    struct WinningTicket {\n        uint256 endDate;\n        bytes32 ticketId;   \n        uint256 price;\n\t    uint256 winning;\n    }\n\n    WinningTicket[] public winningTicketList;\n    WinningTicket public  winner;\n\n    mapping(address => WinningTicket[]) public winningTicketMap;\n\n\n\n\n\n    //------------------------------------constructor----------------------------------------------------\n    constructor()\n    {\n        owner = msg.sender;\n        lottery_state = LOTTERY_STATE.CLOSED;\n        numTotalTickets = 0;\n        numLotteries = 0;\n    }\n\nfunction setStateLottery(uint256 _duration, uint256 _price) public onlyOwner{\n        require(\n            lottery_state == LOTTERY_STATE.CLOSED,\n            \"Can't start a new lottery yet!\"\n        );\n      \n        if(_duration >= 5  && _duration <= 60){\n            duration = (_duration * 1 minutes);\n        }\n        else\n        {\n             duration = 10 minutes;\n        }\n\n        if(_price > 0 && _price <= 5){\n            ticketPrice = (_price * 1 ether);\n        }\n        else\n        {\n            ticketPrice = 1 ether;\n        }\n\n        lottery_state = LOTTERY_STATE.OPEN;\n        expiration = block.timestamp + duration;\n        startLottery = block.timestamp;\n        numTotalTickets = 0;\n        numLotteries = numLotteries + 1;\n    }\n   \n\n//----------------------------------------MAIN-------------------------\n    function enter() external payable notOwner{       \n        require(msg.value ==  ticketPrice, \"1 ether il requisito per partecipare\");\n        require(msg.sender != address(0), \"Sender address must be valid\"); \n        require(lottery_state == LOTTERY_STATE.OPEN);\n        require(block.timestamp < expiration, \"the lottery expired\");\n\n         \n        numTotalTickets = numTotalTickets + 1; // numero ticket\n\n        bytes32 TicketId = internalTicketData();\n\n        players.push(payable(msg.sender));\n        ticketList.push(TicketId);\n\n\n         operatorTotalCommission = players.length * ticketCommission; //commissione owner\n        \n    }\n\n\n    function generateTicketId() private view returns (bytes32) {\n        return keccak256(abi.encode(msg.sender, block.timestamp));\n    }\n\n    function internalTicketData() private returns(bytes32) {\n        ActiveTicket[] storage  _internalTicketList = activeTicketMap[msg.sender];\n        bytes32 randomTicketId =  generateTicketId();\n        _internalTicketList.push(\n            ActiveTicket({\n                player:msg.sender, \n                startData:block.timestamp, \n                endDate:expiration,\n                ticketId:randomTicketId,\n                price: ticketPrice\n            })\n        );\n        activeTicketMap[msg.sender] = _internalTicketList;\n\n        return randomTicketId;\n    }\n\n\n    //get random function\n\n    function getRandomNumber() private view returns(uint256){\n        bytes32 blockHash = blockhash(block.number - players.length);\n         return uint256(\n            keccak256(abi.encodePacked(block.timestamp, blockHash))\n        );\n    }\n\n    function pickWinner() public onlyOwner{\n        require(block.timestamp >= expiration, \"the lottery not expired yet\");\n        require(lottery_state == LOTTERY_STATE.OPEN, \"lottery is closed yet\");\n        if(players.length == 0){\n            _closeWitoutWinner();\n            return;\n        }\n        uint256 randomIndex = getRandomNumber() % players.length;\n\n        uint256 winningTicket  = (players.length * (ticketPrice - ticketCommission));\n \n        \n        address payable newWinner = players[randomIndex];\n\n        newWinner.transfer(winningTicket);\n        WithdrawCommission(); // commissione owner\n       \n        bytes32 ticketID = ticketList[randomIndex];\n\n        winner = WinningTicket(\n                {   endDate: expiration ,\n                    ticketId: ticketID,\n                    price: ticketPrice,\n\t\t    winning:winningTicket\n                });\n\n        WinningTicket[] storage  _internalTicketList = winningTicketMap[newWinner];\n        _internalTicketList.push(winner);\n        winningTicketList.push(winner);\n       \n        winningTicketMap[newWinner] = _internalTicketList;\n\n    \n\n        //clear players array\n        players = new address payable[](0);\n        \n        delete ticketList;\n       //chiudo la lotteria\n        lottery_state = LOTTERY_STATE.CLOSED;\n\n    }\n\n    function _closeWitoutWinner() private onlyOwner {\n            players = new address payable[](0);        \n            delete ticketList;\n            lottery_state = LOTTERY_STATE.CLOSED;\n    }\n\n\n    function WithdrawCommission() private onlyOwner {\n        address payable operator = payable(msg.sender);\n\n        uint256 commission2Transfer = operatorTotalCommission;\n         operatorTotalCommission = 0;\n\n        operator.transfer(commission2Transfer);\n\n    }\n\n    \n//------------------------------------getters-----------------------------------------------\n\n    function getWitdrawCommision() public onlyOwner view returns(uint256){\n        return operatorTotalCommission;\n    }\n    function getBalance() public view returns(uint){\n        require(msg.sender == owner);\n\n        //solidity works in wei\n        return address(this).balance;\n    }\n\n    function CurrentWinningReward() public view returns (uint256) {\n        return ticketList.length * ticketPrice;\n    }\n    // ritorna il numero di ticket staccati \n    function getTotalTicket() public view returns(uint){\n        return numTotalTickets;\n    }\n\n    function getTicket(address _player) public view returns(ActiveTicket[] memory){\n        return  activeTicketMap[_player];\n    }\n\n    function getWinningTicket(address _player) public view returns(WinningTicket[] memory){\n        return  winningTicketMap[_player];\n    }\n\n    function Winner() public view returns(WinningTicket memory){\n        return winner;\n    }\n\n    function getLastWinning() public view returns(WinningTicket[] memory){\n        return winningTicketList;\n    }\n\n    function getRemainingTime() public view returns (uint256) {\n        if (block.timestamp >= expiration) {\n            return 0;\n        }\n        return expiration - block.timestamp;\n    }\n\n\n\n    //-----------------------------------------Modifiers------------------------------------ \n    modifier onlyOwner (){\n        require(msg.sender == owner);\n        _;\n    }\n\n    modifier notOwner(){\n        require(msg.sender != owner,\"owner is not allowed\");\n        _;\n    }\n\n\n     modifier lotteryActive(){\n        require(lottery_state != LOTTERY_STATE.OPEN, \"lottery is closed\");\n        _;\n    }\n\n    modifier lotteryClosed(){\n        require(lottery_state != LOTTERY_STATE.CLOSED, \"lottery is open\");\n        _;\n    }\n\n}\n","sourcePath":"C:\\Users\\formi\\Documenti\\Github\\SDD\\truffle\\contracts\\Lotteria.sol","compiler":{"name":"solc","version":"0.8.18+commit.87f61d96.Emscripten.clang"},"schemaVersion":"3.4.14","updatedAt":"2023-07-17T13:16:55.657Z","networkType":"ethereum","devdoc":{"kind":"dev","methods":{},"version":1},"userdoc":{"kind":"user","methods":{},"version":1}}